:020000040800F2
:10000000001000200D0100085501000855010008EE
:1000100055010008550100085501000800000000C6
:100020000000000000000000000000005501000872
:1000300055010008000000005501000855010008A6
:100040005501000855010008550100085501000838
:100050005501000855010008550100085501000828
:100060000000000055010008550100085501000876
:100070005501000855010008550100080000000066
:100080005501000855010008000000005501000856
:1000900055010008550100085501000855010008E8
:1000A00055010008550100085501000855010008D8
:1000B00055010008000000000000000000000000E2
:0C00C00055010008000000005501000878
:1000CC0010B5054C237833B9044B13B10448AFF386
:1000DC0000800123237010BD1802002000000000D6
:1000EC009C0C000808B5034B1BB103490348AFF344
:1000FC00008008BD000000001C0200209C0C0008C1
:10010C00002103E00B4B5B58435004310A480B4B66
:10011C0042189A42F6D30A4A02E0002342F8043B02
:10012C00084B9A42F9D300F0BDFA00F067FD00F0DD
:10013C00EBFA7047BC0C0008000000200000002007
:10014C000000002034020020FEE70000114B1A686A
:10015C0042F001021A601A689207FCD55A686FF3D4
:10016C0001025A605A6812F00C0FC2F38101F9D1E6
:10017C001A6822F0867222F480321A6041F61072EC
:10018C005960DA624FF480121A634FF41F029A60BE
:10019C00704700BF00100240030C03F1804303F5CD
:1001AC00043300F01F001A68012303FA00F030EA50
:1001BC0002030CBF012000207047030C03F18043A5
:1001CC0003F50433012200F01F0002FA00F0914203
:1001DC001A680CBF104322EA000018607047000038
:1001EC0004281FD8DFE800F003090E1319000E4B8A
:1001FC001A6861F300021A6070470B4B1A6861F3BE
:10020C001042F8E7084B1A6861F31862F3E7064BE3
:10021C001A6A61F300021A627047034B5A6A61F35F
:10022C0000025A62704700BF00100240024B5A682D
:10023C0060F307125A60704700100240024B5A6874
:10024C0060F30A225A60704700100240024B5A6851
:10025C0060F3CD225A6070470010024010B51A4B63
:10026C005A6820B960F3104218485A6009E042F409
:10027C0080325A6001285A6821D16FF351421448D8
:10028C005A606FF41874A0F56E122244114CA242FD
:10029C0018D9114A02441148824294BF022200220A
:1002AC00586861F3954058605868C1F3011161F3C7
:1002BC005E705860D96A62F31A61D96210BD42F45B
:1002CC000032D1E70022EBE70010024000093D00AC
:1002DC0000127A00DEC810006BCA88FF7AE50700AE
:1002EC00024B5A6860F301025A60704700100240DA
:1002FC00024B5868C0F38100704700BF00100240E9
:10030C00044B5A6D01280CBF42F030026FF30512FA
:10031C005A65704700100240014BD860704700BF0F
:10032C0000200240084BDA68D10709D4DA6852077A
:10033C0008D4DB6813F0100F14BF022003207047A1
:10034C0000207047012070470020024010B5044681
:10035C00FFF7E8FF30B90CB9042010BDFFF7E2FF3E
:10036C00013CF7E7002C08BF0420F6E7034B044AD6
:10037C005A6002F188325A60704700BF0020024078
:10038C0023016745024A136943F0800313617047E8
:10039C000020024010B5094C236943F0020323618D
:1003AC006061236943F0400323614FF08040FFF705
:1003BC00CDFF23696FF34103236110BD0020024080
:1003CC0010B5074C236943F00103236101604FF41E
:1003DC008010FFF7BBFF23696FF30003236110BD8F
:1003EC00002002402DE9F0410C880025032601274E
:1003FC000CB9BDE8F081E30735D51FFA85FE02681C
:10040C004FEA4E0C06FA0CF322EA030202608A79D8
:10041C00D0F8008002FA0CF242EA0802026042684C
:10042C0007FA0EF822EA080242600A79D0F8048032
:10043C0002FA0EF242EA08024260826822EA0302E1
:10044C008260CA79D0F808E002FA0CF242EA0E0295
:10045C008260C26822EA0303C3604B79C26803FA64
:10046C000CF31343C36064080135C1E74FF6FF7208
:10047C004FF08073C0E9002370472DE9F84342EA3E
:10048C0001039B0705460E46144626D14FEA9108F8
:10049C00FFF76CFFC4F3090313B92046FFF77AFF8B
:1004AC0005EB88082F46A4EB050947450BD1FFF750
:1004BC0069FF32462146284600F0C4FBB0FA80F0B2
:1004CC004009BDE8F883396809EB0700FFF778FFAE
:1004DC000320FFF721FF0437E7E70020F1E700F0E6
:1004EC00C1BB0000114B1B78012B03D0104B002219
:1004FC001A8070470F4A136803F16043B3F5803FCD
:10050C00F4D8536803F17843A3F58053B3F5802FE7
:10051C00ECD872B6084B19686FF300011960D2E978
:10052C0000329D4683F3088810477047007C000812
:10053C00000000200010000800040040054A11686B
:10054C0021F440711160D36823F4407343EA002313
:10055C00D3607047000400480120FFF7EFBF000094
:10056C0070B51448ADF5806DFFF716FE01281ED14D
:10057C00114CA3780D2B1AD0013BDBB2FD2B16D8F6
:10058C004FF480622146684600F06CFB0B4E0D2345
:10059C008DF802306D46224628464FF4807104F5E2
:1005AC008074FFF76AFFB44205F58075F3D10DF541
:1005BC00806D70BD1C002400007C000800800008C9
:1005CC000549064B4A6A92B25A804B6A9B1A9BB2F7
:1005DC009842FAD8704700BF000400400000002089
:1005EC00074B10229A611A6822F4407242F480720E
:1005FC001A605A6822F010025A603420FFF7E0BFEC
:10060C0000040048F8B50C4E10270546B76234209C
:10061C00FFF7D6FF0824EB074CBFB761B762342055
:10062C00013CFFF7CDFF14F0FF044FEA5505F2D162
:10063C00014B10229A61F8BD0004004808B5FFF781
:10064C00CFFFC120FFF7DEFFBDE80840FFF784BFF6
:10065C0008B5FFF7C5FF3020FFF7D4FFBDE8084011
:10066C00FFF77ABF08B5FFF7BBFFC220FFF7CAFF41
:10067C00BDE80840FFF770BF38B5FFF7B1FF084D74
:10068C00002415F8010BFFF7BDFF01343420FFF7F0
:10069C0097FF092CF5D1BDE83840FFF75DBF00BFCF
:1006AC00E80F000870470023F0B504464AF2010732
:1006BC001846994200DCF0BDE55C082285EA00068C
:1006CC0016F0010F4FEA500018BF784002F1FF32CC
:1006DC0018BF80B212F0FF024FEA5505EED101337C
:1006EC00E7E7000010B5074C0146201DFFF7DBFFC4
:1006FC0021444A790B7943EA02231B1A5842584188
:10070C0010BD00BF000000202DE98048B34B83B022
:10071C0040F2531200AF1A60FFF718FD01210020C0
:10072C00FFF75EFD0120FFF737FD01280446F9D1E4
:10073C001D210020FFF792FD21460220FFF750FDFE
:10074C001920FFF729FD01280446F9D10020FFF7F5
:10075C006DFD0020FFF77AFD0020FFF76FFD2046AE
:10076C00FFF7CEFD0220FFF7BBFDFFF7C1FD02280E
:10077C000446FAD10020FFF7C3FD9948994E012198
:10078C00FFF71BFD984B994877229A624FF6FF7240
:10079C00DA621A6842F001021A601A686FF30922D1
:1007AC001A601A686FF306121A605A6942F0010255
:1007BC005A610121FFF701FD01218D48FFF7FDFC76
:1007CC003846FFF753FE4FF080731020C7E9000343
:1007DC0039468448FFF706FE2046FFF7AFFE4FF47C
:1007EC00FA70FFF7EDFE834C00253369D90658BF2C
:1007FC00B4F806314FF00A005CBF0133A4F806319F
:10080C00FFF7DEFEB4F80631B3F5E17F88BF4FF495
:10081C007A650135B5F57A6FE7DBB3F5E17F06D97B
:10082C007548FFF7B9FC012801D0FFF75BFE0120EA
:10083C00FFF784FE4FF4FA70FFF7C2FE694E0546CF
:10084C003369DA0658BFB4F806314FF00A005CBFC2
:10085C000133A4F80631FFF7B3FE013DF0D1B4F833
:10086C000631F3B12846A4F80651FFF767FE4FF4A2
:10087C00FA70FFF7A5FE5B4E05463369DB0658BFE1
:10088C00B4F806314FF00A005CBF0133A4F806310E
:10089C00FFF796FE013DF0D1B4F806310BB1FFF72E
:1008AC0021FE0020FFF74AFEFFF75AFE4E4E53483A
:1008BC00DFF8489100254FF481722946C4F808519D
:1008CC0084F80C5100F0DCF9FFF746FEA846002333
:1008DC0084F80D31726A434992B2628044F620600A
:1008EC000B69DD0646D5726A94F80C113D4D92B237
:1008FC0062802B69D8064DD41A20FFF761FE2B6954
:10090C0013F0100B3DD1DFF8DCA03420FFF758FEBC
:10091C00DAF8105094F80D31C5F3001505FA0BF503
:10092C001D430BF1010BEDB2BBF1080F84F80D5117
:10093C00EBD1FFF745FEDAF81030DB0621D594F841
:10094C000E21012384F80C31002A5BD0B4F810215D
:10095C00D4F8083102329A4227D0013389F800507A
:10096C00C4F8083108F10108B8F5817F09F10109D3
:10097C00ADD117E0736A9B1A9BB28342B0D9652341
:10098C00238094F80C316BB92388642B8FD9FFF733
:10099C00A9FD8CE7736A9B1A9BB2B3F5827FA8D929
:1009AC000029A6D094F80E31A3B3B4F81051284600
:1009BC00FFF798FE002847D04FF4807200211048B2
:1009CC0000F05EF90D492A4601F5877000F04AF9EE
:1009DC00FFF73EFE002384F80E31D5E700200240DD
:1009EC0001001C0000040048000400401200140028
:1009FC0011001400000000201C0024000400002042
:100A0C0012010020736A61885B1A9BB2FA2B10D911
:100A1C00C4F80821237D20797D2B18D1237B0D2B45
:100A2C00B2D1637B422BAFD1FFF726FE0023237696
:100A3C00AAE740F20113984508BF238889F80050B3
:100A4C0004BF143323808DE7FFF70CFE9CE7237E55
:100A5C007D2B05D1237C0D2B02D1637C422BE3D063
:100A6C0094F82C307D2B07D194F824300D2B03D126
:100A7C0094F82530422BD7D080B9A27963791343EF
:100A8C00E279134301D165232380FFF7A9FDC1202F
:100A9C00FFF7B8FD23880133238045E001281ED1E0
:100AAC000220FFF71FFE0028CED0D4F81422504BA2
:100ABC009A4202D8FFF7C2FD66E74E4BB4F810110C
:100ACC009A4204D1022984BF0D2384F814314A4878
:100ADC00FFF7D3FC0028EDD0FFF7BAFD54E7FF2851
:100AEC0010D10420FFF7FEFD0028ADD00023238099
:100AFC00E3885BBA9BB203F10063C4F81432FFF7CE
:100B0C00A7FDD4E6FE2812D10420FFF7EBFD002848
:100B1C009AD0A379012B14BFE3794FF48073A4F816
:100B2C001031012384F80E31FFF716FD2CE7FD2858
:100B3C000AD10220FFF7D6FD002885D0FFF750FD23
:100B4C00C120FFF75FFDEFE702280AD1FFF7CAFDCE
:100B5C0000283FF479AFD4F81422254B9A42A9D936
:100B6C00BAE7032891D10220E946FFF7BBFD18B97B
:100B7C00FFF778FDCD4607E76579D4F80831002DED
:100B8C0008BF4FF480750133C4F80831FFF728FD16
:100B9C0005F10A0323F00703ADEB030D05F1030880
:100BAC0042460021684600F06BF82A46D4F814122D
:100BBC006846FFF794FC29466846FFF774FD6B1CEA
:100BCC000DF805000231000A0DF8030030230DF872
:100BDC000130EA4600251AF80500FFF713FD013530
:100BEC003420FFF7EDFCA845F5DCFFF7B5FCC1E7B9
:100BFC00FF0F0008007C00081201002070B50D4D9D
:100C0C000D4C641BA4100026A64209D10B4D0C4CB4
:100C1C0000F03EF8641BA4100026A64205D170BD5E
:100C2C0055F8043B98470136EEE755F8043B9847D6
:100C3C000136F2E7B40C0008B40C0008B40C000840
:100C4C00B80C000810B501390244904201D10020C3
:100C5C0005E0037811F8014FA34201D0181B10BD19
:100C6C000130F2E70A44914200F1FF3300D17047A2
:100C7C0010B511F8014B03F8014F9142F9D110BD99
:100C8C0002440346934200D1704703F8011BF9E775
:100C9C00F8B500BFF8BC08BC9E467047F8B500BF5D
:080CAC00F8BC08BC9E4670472D
:040CB400F100000843
:040CB800CD00000863
:100FE000DAE32559D963B84E343731141F060601A8
:040FF00030000000CD
:040000050800010DE1
:00000001FF
