:020000040800F2
:10100000003C0020C13E0008093F0008914C000848
:10101000954C0008994C00089D4C00080000000009
:10102000000000000000000000000000A14C0008CB
:10103000A54C000800000000A94C0008AD4C0008B9
:10104000093F0008093F0008093F0008093F000860
:10105000093F0008093F0008093F0008154E000835
:1010600000000000B14C0008D94C0008154D0008E4
:10107000894D0008093F0008093F000800000000F2
:10108000F14D0008093F000800000000B94D0008BC
:10109000D94D0008C94D0008093F0008093F000864
:1010A000093F0008093F0008093F0008ED4D00080E
:1010B000093F0008000000000000000000000000E0
:0C10C000093F000800000000093F000884
:1010CC004FF0FF0C1CEAD0521EBF1CEAD15392EA1F
:1010DC000C0F93EA0C0F6FD01A4480EA010C4002FB
:1010EC0018BF5FEA41211ED04FF0006343EA501055
:1010FC0043EA5111A0FB01310CF00040B1F5000F97
:10110C003EBF490041EAD3715B0040EA010062F145
:10111C007F02FD2A1DD8B3F1004F40EBC25008BF2F
:10112C0020F00100704790F0000F0CF0004C08BF4D
:10113C0049024CEA502040EA51207F3AC2BFD2F11A
:10114C00FF0340EAC250704740F400004FF0000328
:10115C00013A5DDC12F1190FDCBF00F00040704762
:10116C00C2F10002410021FA02F1C2F1200200FAA0
:10117C0002FC5FEA310040F1000053EA4C0308BF67
:10118C0020EADC70704792F0000F00F0004C02BFB8
:10119C00400010F4000F013AF9D040EA0C0093F033
:1011AC00000F01F0004C02BF490011F4000F013B8D
:1011BC00F9D041EA0C018FE70CEAD15392EA0C0FFB
:1011CC0018BF93EA0C0F0AD030F0004C18BF31F066
:1011DC00004CD8D180EA010000F00040704790F03C
:1011EC00000F17BF90F0004F084691F0000F91F0E0
:1011FC00004F14D092EA0C0F01D142020FD193EAA6
:10120C000C0F03D14B0218BF084608D180EA01002D
:10121C0000F0004040F0FE4040F40000704740F009
:10122C00FE4040F44000704780F0004002E000BFF8
:10123C0081F0004142001FBF5FEA410392EA030FB5
:10124C007FEA226C7FEA236C6AD04FEA1262D2EBFF
:10125C001363C1BFD218414048404140B8BF5B4204
:10126C00192B88BF704710F0004F40F4000020F09D
:10127C007F4018BF404211F0004F41F4000121F0B3
:10128C007F4118BF494292EA030F3FD0A2F10102FD
:10129C0041FA03FC10EB0C00C3F1200301FA03F13B
:1012AC0000F0004302D5494260EB4000B0F5000F5E
:1012BC0013D3B0F1807F06D340084FEA310102F11D
:1012CC000102FE2A51D2B1F1004F40EBC25008BFCF
:1012DC0020F0010040EA03007047490040EB000099
:1012EC00013A28BFB0F5000FEDD2B0FA80FCACF19A
:1012FC00080CB2EB0C0200FA0CF0AABF00EBC250C7
:10130C0052421843BCBFD0401843704792F0000FB4
:10131C0081F4000106BF80F400000132013BB5E707
:10132C004FEA41037FEA226C18BF7FEA236C21D07D
:10133C0092EA030F04D092F0000F08BF08467047E2
:10134C0090EA010F1CBF0020704712F07F4F04D1B0
:10135C00400028BF40F00040704712F100723CBFC3
:10136C0000F50000704700F0004343F0FE4040F4ED
:10137C00000070477FEA226216BF08467FEA2363AB
:10138C000146420206BF5FEA412390EA010F40F496
:10139C00800070474FF0000304E000BF10F00043E2
:1013AC0048BF40425FEA000C08BF704743F09643C9
:1013BC0001464FF000001CE050EA010208BF7047E4
:1013CC004FF000030AE000BF50EA010208BF70476B
:1013DC0011F0004302D5404261EB41015FEA010C80
:1013EC0002BF84460146002043F0B64308BFA3F178
:1013FC008053A3F50003BCFA8CF2083AA3EBC2535A
:10140C0010DB01FA02FC634400FA02FCC2F1200278
:10141C00BCF1004F20FA02F243EB020008BF20F0AF
:10142C000100704702F1200201FA02FCC2F1200215
:10143C0050EA4C0021FA02F243EB020008BF20EA0A
:10144C00DC7070474FF0FF3C06E000BF4FF0010C22
:10145C0002E000BF4FF0010C4DF804CD4FEA400202
:10146C004FEA41037FEA226C18BF7FEA236C11D04C
:10147C0001B052EA530C18BF90EA010F58BFB2EBFF
:10148C00030088BFC81738BF6FEAE17018BF40F07F
:10149C00010070477FEA226C02D15FEA402C05D133
:1014AC007FEA236CE4D15FEA412CE1D05DF8040BB8
:1014BC00704700BF844608466146FFE70FB5FFF74B
:1014CC00C9FF002848BF10F1000F0FBD4DF808ED03
:1014DC00FFF7F4FF0CBF012000205DF808FB00BFF4
:1014EC004DF808EDFFF7EAFF34BF012000205DF84E
:1014FC0008FB00BF4DF808EDFFF7E0FF94BF01209B
:10150C0000205DF808FB00BF4DF808EDFFF7D2FF97
:10151C0094BF012000205DF808FB00BF4DF808EDDA
:10152C00FFF7C8FF34BF012000205DF808FB00BFA7
:10153C004FEA4002B2F1FE4F0FD34FF09E03B3EBD4
:10154C0012620DD94FEA002343F0004310F0004F14
:10155C0023FA02F018BF404270474FF0000070476A
:10156C0012F1610F01D1420205D110F0004008BF09
:10157C006FF0004070474FF00000704742000ED2F1
:10158C00B2F1FE4F0BD34FF09E03B3EB126209D4B2
:10159C004FEA002343F0004323FA02F070474FF068
:1015AC000000704712F1610F01D1420202D14FF0DD
:1015BC00FF3070474FF00000704700BF53B94AB975
:1015CC00002908BF00281CBF4FF0FF314FF0FF303F
:1015DC0000F00CB8ADF1080C6DE904CE04F090FAF3
:1015EC00DDF804E0DDE9022304B07047704700BF6A
:1015FC0010B5054C237833B9044B13B10448AFF341
:10160C0000800123237010BD5A0800200000000048
:10161C00345E000808B5034B1BB103490348AFF314
:10162C00008008BD000000005C080020345E00084B
:10163C00A449A5480B68CA6F00882DE9F04FD21A4F
:10164C0092B2A24C5509904283B02280658062D23E
:10165C009F48008890425ED99E480022028004F187
:10166C004006204601E051F8083F4A68D21A92B26F
:10167C0095422CBF0022012240F8042F8642F2D161
:10168C00A56BA368D4F818A0D4F804E06169A26A29
:10169C00D4F824B02069D4F820800193AE00656B97
:1016AC00E768D4F82CC083EA0A0946EAC50689EA39
:1016BC0002098EEA010585EA0B054FEA8909E369FF
:1016CC00009349EAC509256C236B354380EA08066B
:1016DC005E4049EA0609E66B009B45EA4605EEB218
:1016EC0087EA03057C4B85EA0C0549EA450593F826
:1016FC000090EDB2B9F1000F10D0DFF8E09199F83D
:10170C000090B9F1000F0FD1AE4211D0B4F85030A7
:10171C000133A4F8503003B0BDE8F08FDFF8BC9172
:10172C0099F80030002B60D0C6F10F06F6B2EBE74B
:10173C00684BB4F8465000261E80019B5B0243EABE
:10174C008E2343EA0C0343EA072343EAC013013513
:10175C0043EA81130099A4F8465043EA4A13256BD7
:10176C0043EA0113012D43EAC80308BF5C4E43EA68
:10177C008B0343EA420208BF35702F2A1BDD94F815
:10178C004830002B5BD1574D2A78002AC3D0564BDA
:10179C001B78002BBFD1504B1B78002BBBD094F87F
:1017AC004B30934253D0042A84F84B205AD901234E
:1017BC0084F84930AFE7531E2E2B0FD9002AE2D103
:1017CC0094F84A304949012B08BF84F84820454A0F
:1017DC0000230B80137084F849309CE7434B414D38
:1017EC000021D2B219802A70D1E703F03DFAC0B1C2
:1017FC0094F844300133DBB2642B84F8443010D9B4
:10180C00012389F80030D4E901E30193E3690093E3
:10181C00D4E90370D4E9051AD4E9088BD4E90A2C6D
:10182C0082E7D4E901E30193E3690093D4E90370FF
:10183C00D4E9051AD4E9088BD4E90A2C5FE72B48C4
:10184C002849028000230B7084F8493063E7042A8E
:10185C0008D994F849300133DBB2052B84F84930B0
:10186C007FF659AF0023013A84F84930142A0FD877
:10187C00DFE802F00B7E7A76720E6B64605C0E54BD
:10188C0046200E0E0E0E0E191400194B01221A7062
:10189C00184A2978117000232B703CE7164A174B15
:1018AC00527C1A70F4E7144B144A5B7CC3F10103AD
:1018BC001370EDE7002240F6FF6384F84C20A4F887
:1018CC004E30E5E74C07002038070020D0030020FD
:1018DC00C4030020CE0600209C060020DD0600205C
:1018EC00C8060020F4060020870600208806002089
:1018FC00A2060020F5060020C80400202B000020C2
:10190C0094F84A3001214FF460628B4284F84C10F9
:10191C00A4F84E20BCD184F84830B9E700F09AFA0C
:10192C00154B164A5B7C01331370B1E7124B012245
:10193C009A74ADE7104B00229A74A9E70E49104B2C
:10194C000120002248741A70A2E70B490C4B0020AE
:10195C00012248741A709BE7084B05221A7097E70E
:10196C00064B04221A7093E7044B03221A708FE77C
:10197C00024B02221A708BE7C8040020A20600203A
:10198C002B00002030B52F4DB5F84E30002B3FD03A
:10199C0000221846A5F84E201A0A82EA1312534068
:1019AC00DB4303F00F0343EA0013274AAB6503F054
:1019BC000F001913145C515C244844EAC134C3F37E
:1019CC000321C3F30313515CD35C214A92F800E06A
:1019DC0044EA812444EA431405EB8E03802200EB95
:1019EC008E00EC655A66043013214FF0010C0CFA92
:1019FC0001F32340CB4083EAD2120139D2014B1CB4
:101A0C0040F8042FF3D105EB8E0500232B6630BD77
:101A1C00104B1B785BB103460F2240FA02F10129EF
:101A2C0008D0013A082AF8D100226A65B4E74FF6CB
:101A3C00FF70F0E7083A40FA02F343EA42206A6585
:101A4C0083B2A9E7D00300204C5E000830040020CC
:101A5C00C70300208706002030B5039C84460AE0AB
:101A6C008C4513DD9C420FD0B1EB6E0F0DD0AC4505
:101A7C000EDC04462A4602EB010EE01894454FEAB0
:101A8C006E054FEA6000EBDB204630BD184630BDDA
:101A9C00691C0346EFE700BF0346401A48BFC81A4B
:101AAC00704700BF04494A6A80B292B24B6A9B1AD3
:101ABC009BB28342FAD370470048014000F1FF3CCF
:101ACC0058B106494A6A92B24B6A9B1A9BB2B3F55B
:101ADC007A7FF9D3BCF1010CF4D270470048014075
:101AEC00026803FB03F303EB430C22EA0C0201FB39
:101AFC0003F313430360704703FB03F310B4046850
:101B0C0003FB01F103FB02F203EB430324EA03049E
:101B1C000C430460C16810BC21EA03031343C36087
:101B2C00704700BFBFF34F8F0549064BCA6802F4DC
:101B3C00E0621343CB60BFF34F8F00BFFDE700BFE4
:101B4C0000ED00E00400FA0503468A1A0069996862
:101B5C0010B51C6A1A6001FB0201A1421961C4BFD5
:101B6C0021461C6164428C429869C4BF1C612146A9
:101B7C00DC68101A04FB00F05C68586104FB02007E
:101B8C005C6A0844A042C3E90620C4BFDC6120465D
:101B9C0064428442C4BFDC612046FFF7FFFB10BDEA
:101BAC0030B5A54CA54D2046296883B0C02203F062
:101BBC00C5F9E37D207E032B84BF0223E375A0F1DE
:101BCC000803282B3BD8A0F11803182B40F2F38004
:101BDC00A0F10C030B2B40F2FF80A0F10803032BA8
:101BEC0040F20B81A888964BD862637EA3F1320237
:101BFC00642A2ED8227D002A40F0D3805A0802F1A4
:101C0C000A015B002B816A81A981A37E03EB83030C
:101C1C00DB0014330220EB8101F074FF6378EBB925
:101C2C00E8894FF4FA73009340F6B8324FF47A73A4
:101C3C004FF49671FFF710FFE88403B030BD804A73
:101C4C0041F28733EB80D362637EA3F13202642AC4
:101C5C00D0D9962255232A816B81D6E7A07F0B28F9
:101C6C0088BF052001F04EFF94F8213094F8202015
:101C7C0094F8221094F82300A87503F26B335B00E0
:101C8C006B8294F82430A3F10103B3FA83F35B095C
:101C9C0084F8C03094F82830053B142B84BF0523FE
:101CAC0084F8283094F8293002F27712013B092B82
:101CBC004FEA420288BF0A232A8294F8252088BF63
:101CCC0084F8293094F82A30FA3201F25E512A83D2
:101CDC005A1EA982082A4FF0000184F8271047D910
:101CEC000A2384F82A3094F82B30463B462B84BFC9
:101CFC00FF2384F82B3094F82C30013B622B9CBFD3
:101D0C00012384F8C13094F82D30013B092B84BF9A
:101D1C00052384F82D3094F82E30092B06D8042B8B
:101D2C000CD8DFE803F003837F0B7600454A0023D1
:101D3C00012184F8C23084F8C3301170E889424A1A
:101D4C00E47EB0F5967F3CBF002385F820303F4BF6
:101D5C00A2FB0012A3FB001352092021DB08B1FBEC
:101D6C00F4F1B2FBF1F2B3FBF1F36A84AB8458E704
:101D7C00C3EB4312C3EB82035B002A8930492E3B31
:101D8C00DBB21A442A816A89AB761A446A81AA8B1F
:101D9C001A44AA83EA8B1A44EA834A6C13434B64B1
:101DAC00A1E72A4A2B81A2FB03235B0803F10A0259
:101DBC006B81AA8129E740F6C3130093302241F2CC
:101DCC0087331821FFF748FE0346207EAB80A0F135
:101DDC000C030B2B3FF601AF41F287330093182213
:101DEC0042F20E730C21FFF737FE0346207EAB80C8
:101DFC00A0F10803032B3FF6F5AE41F649530093CF
:101E0C00102243F695230721FFF726FE80B2A88007
:101E1C00E9E60F490B4A01230B700021117084F87D
:101E2C00C2308BE7012384F8C33087E7054A0123CE
:101E3C0084F8C230137081E7C80400200000002031
:101E4C00002C0140180400201F85EB51ABAAAAAA54
:101E5C001A040020044B054893F828C01A6880F82F
:101E6C0001C0C02103F00EB800000020C8040020FF
:101E7C0000B5124A92F8C810B2F89431D2F8C400E6
:101E8C0002EB410C0131C9B26329BCF8CCE0ACF8CF
:101E9C00CC30184484BF002382F8C830084B98BF5C
:101EAC0082F8C810A0EB0E00C2F8C400A3FB0030EF
:101EBC00C0F34F10A2F896015DF804FBC804002093
:101ECC001F85EB5108B502F0B1FF0E4B93F829209A
:101EDC003AB140B90C4A92F89831013382F89831F2
:101EEC0008BD0028F6D1084A93F82A1092F89931C7
:101EFC000133DBB2994282F89931F1D2002382F896
:101F0C00983108BD00000020C804002038B5284CCA
:101F1C0094F82B30012B3BD094F82C30254D5A1EC5
:101F2C0012F0FF0222D084F82C2003F0010384F875
:101F3C00293072B695F89B312BB362B602F092FF42
:101F4C00D5F89C21216B40F6C4139A4284BF01231F
:101F5C0084F82D3094F82C3005EB4303002285F8DF
:101F6C00982185F8A021A3F8A21138BD01230622DF
:101F7C0084F82C2085F89A3184F8293072B695F8BB
:101F8C009B31002BD9D194F82C0003F0F9FAD4E74B
:101F9C0094F82C20074D0132D2B2062A99BF84F84E
:101FAC002C2002F0010384F82C3085F89A31BEE71E
:101FBC0000000020C80400201B4AD36823F0010352
:101FCC0010B5D360FFF7A2FF1849194C0B6BB4F88E
:101FDC00B00194F82F2003EB4303034498080863E3
:101FEC00C2B991F83420580912FB00F292B291F860
:101FFC002D10A4F8B421C2EBD303A4F8B63181B1EF
:10200C00D4F8B83142F20F7293429CBF0133C4F83A
:10201C00B83110BD94F8B22100FB02F2C2F38F125A
:10202C00E5E702F017FFEBE7004401400000002059
:10203C00C804002070B5254ED6F89C317D2B15D9DF
:10204C00234B5B6A7C2B09D8B6F8BC31B3F5167FF1
:10205C0004D2D6F8B831B3F5FA7F19D396F8BE315D
:10206C000133DBB2642B86F8BE3128D8194D95F8B4
:10207C003530002423B90CE095F83530A34208DD47
:10208C0002F0D4FE95F82930834204F10104F3D117
:10209C0070BD72B602F0D2FE0D48B6F8B611426AA7
:1020AC000D4BA6F8B0210131002242625A62D9626E
:1020BC001A61DA6842F00102DA6062B670BD02F0B1
:1020CC00BDFE0023C6F8B83170BD00BFC8040020A7
:1020DC0000100040000000200044014070B5AA4CE4
:1020EC00A37C82B0002B66D094F8C230002B00F099
:1020FC00A180A64DB4F8C021B2F5836F80F0A38106
:10210C00A2F130039BB2B3F57A7F10D2617C95F8C3
:10211C002B60C1F10100864200F0428395F8361025
:10212C005B009BB2C1F12F010B44A4F8C2312F2AE2
:10213C0046D8002394F8C721A4F8C23184F8C631DC
:10214C0095F837309A4241D8E67C002E51D0B4F83D
:10215C00C2011D2800F2D6800023A4F8C83194F8DF
:10216C00283003EB8303B0EB830F4FEA830180F23B
:10217C00D58094F8C531002B39D194F8D431002B8B
:10218C0035D0E27CB4F8C80150232E2113FB021386
:10219C008342C0F2018194F8DA31002B00F0BF8148
:1021AC00013B042B00F2B881DFE813F0B401F50217
:1021BC00F202EF02B401B4F8C031744DA4F8C2318C
:1021CC0094F8C72195F837309A42BDD9A37D002BDE
:1021DC00BAD003F097F902F031FE662384F8C731C8
:1021EC0094F8C5310022A4F8C821002BC5D002B048
:1021FC0070BD94F8CA31002B7FD094F8CB31002BF2
:10220C0040F03681D4F8D06161493046FFF786F949
:10221C00002840F0AE813046FFF7B0F9A4F8C801B1
:10222C005C493046FFF75CF90028A2D03023A4F8B3
:10223C00C8319EE794F82620544DB4F8C001002A0A
:10224C0075D0AE7D760006F57A7188421CDD667C11
:10225C0095F82B20B24200F0758294F89B31002B3C
:10226C0040F05281002384F8C43140F2FF73009394
:10227C004FF4FA622F23FFF7EFFBAE7D0346B4F861
:10228C00C001A4F8C2317600C6F57A72824221DD13
:10229C00637C95F82B60C3F101018E4200F06482DF
:1022AC0094F89B31002B40F02F812F2300210093B9
:1022BC0040F2FF7384F8C411FFF7CEFBAE7D0346EA
:1022CC007600B4F8C001A4F8C231C6F57A7398420E
:1022DC00C0F21A8106F57A76B04200F3158194F8B3
:1022EC009B210023A4F8C231002A00F00D810122A9
:1022FC0084F89B3184F8C42106E1B4F8C231A4F807
:10230C00C83136E71E283FF42AAF94F8282002EB98
:10231C008202920090421146C0F2CA8040F2FF72D3
:10232C000092A023FFF798FBA4F8C80121E7AA7D2F
:10233C00520002F57A71884240F3C680637C95F8AE
:10234C002B209A4200F0DF8140F2FF7300934FF490
:10235C00FA622F23FFF780FBAB7D02465B00B4F8DB
:10236C00C001A4F8C221C3F57A72824200F3B18095
:10237C0003F57A738342C0F2C7800023A4F8C231FC
:10238C0084F8C631C0E000BFC80400200000002063
:10239C0000E0FF440000404294F8BF31002B00F0F5
:1023AC002681002A00F017816B894FF4FA620092A3
:1023BC00283340F2FF728921FFF74EFBA4F8D801B5
:1023CC0094F82630E17C002B40F0F680B4F8C8611C
:1023DC0084F89B3150222E2312FB01339E427FF74F
:1023EC00DAAE2E2E07D9627F1E231341D4F8B82102
:1023FC00934200F25C81B4F8D831B5F86A209A4265
:10240C0094F8C13038BFA4F8D8213BB1B5F96C3081
:10241C00B4F8D8219A42C8BFA4F8D831D4F8E45102
:10242C0000212846FFF77AF800283FF4E0AE2F2E63
:10243C007FF6DDAE2846FFF7A1F8B4F8D831184482
:10244C00A4F8D801D3E6637C95F82B10994200F0E0
:10245C00C08195F83600A2F58361490089B2C0F1BC
:10246C002F00A2F1300301449BB2A4F8C2114AE63A
:10247C00D5E90E32B4F8C20100922F2140F2FF725E
:10248C00FFF7EAFAB4F8C221C44B93FBF0F3E07EF9
:10249C002E2A4FEA500093FBF0F3A4F8CC313FF610
:1024AC00B1AE0023A4F8C8612E64C4F8D03160E644
:1024BC00A02300931E212F23FFF7CEFA0346A4F886
:1024CC00C831B4F8C2014AE6C2F57A729042BFF63E
:1024DC0054AF637C95F82B60C3F101018E4200F080
:1024EC00F5802F230093002140F2FF73FFF7B4FA1D
:1024FC00AB7D02465B00B4F8C001A4F8C221C3F561
:10250C007A729042BFF634AF94F8C230002B3FF48D
:10251C0057AEEFE501F034FC002384F8DA31237D6B
:10252C0063BB94F8BF21A4F8D831002A00F0AB802B
:10253C0094F82630002B48D094F89B31B3B1B4F802
:10254C00C0114FF47A70FFF7A7FAAA8800F57A73D6
:10255C009BB2013A9342A4F8DC31C0F2818103F0C2
:10256C0031F994F89B61002E7FF441AEB4F8C86148
:10257C0037E740F2FF73A4F8C83151E694F8BF3145
:10258C00002B47D1227FC4F8B831012685F82D6085
:10259C0084F89931002A3BD0E07C00283BD194F898
:1025AC00293003F2DE335B00A4F8DC3102F00CFFBF
:1025BC00E07C84F89B6130E02E22502313FB012336
:1025CC00B4F8C8219342BFF6E6AD94F89B61002E97
:1025DC007FF40DAECAE74FF4FA626B8900922F219B
:1025EC0040F2FF72FFF738FAA4F8D801E8E602F0DF
:1025FC0089FF95F82D30002B00F026812B89E27C89
:10260C00B4F8C801A4F8D631012184F8BF11C8E68A
:10261C0002F078FFE07C94F89B6195F82C30013B3C
:10262C00C3EB0312B5F8683003EB82031AB2B2F5B0
:10263C00B47F9BB2A6BFA3F5B4739BB2A4F8DE2102
:10264C0003F1770212B2A8BFA4F8DE31B2F5B47F61
:10265C00A8BFA3F1F102A4F8E02103F1EF0212B23A
:10266C00B2F5B47FA6BF793BA4F8E231A4F8E2211D
:10267C000023012808BF84F8C501A4F8D831002E26
:10268C007FF4B5AD72E7237FC4F8B821012185F83A
:10269C002D10002B40F0DE8094F89B31002B00F0C5
:1026AC00DC8094F82630002B7FF449AF9FE5B4F81A
:1026BC00D8312A8993423CBFA4F8D8211346EA8B1F
:1026CC009A423CBFA4F8D821134696E6E88C296BB5
:1026DC00884280F0A580B4F8BC11C72900F2A08014
:1026EC000122002685F82D20C4F8B86185F82B301E
:1026FC0002F0A4FBAA7DB4F8C00184F8C6615200B4
:10270C00C2F57A72EDE6E88C2A6B904280F09280EA
:10271C00B4F8BC21C72A00F28D80C3F10103002656
:10272C00012285F82B30C4F8B86185F82D2002F011
:10273C0085FBA97DB4F8C00184F8C661490001F598
:10274C007A7101E694F8C461A4F8C2314FF0010C1F
:10275C0084F89BC1002E3FF4D7AEACEB020284F898
:10276C009B3185F82B207DE594F8C46100214FF056
:10277C00010CA4F8C21184F89BC1002E3FF4C4AE26
:10278C0085F82B3084F89B118FE501F08BFAC3E6AA
:10279C0001F056FBC0E601F023FBBDE60087930376
:1027AC00EA8C2B6B9A422DD2B4F8BC31C72B29D8AA
:1027BC000123002685F82D30C4F8B86185F82B105C
:1027CC0002F03CFBB4F8C02184F8C661A2F13003DE
:1027DC00A4E4E98C2A6B91421BD2B4F8BC21C72A21
:1027EC0017D80122C3F10103002685F82D2085F8A6
:1027FC002B30C4F8B86102F021FBB4F8C02184F886
:10280C00C66126E694F8C531002BD1D1A4F8C031AD
:10281C008FE494F8C521002AE3D1A4F8C02188E400
:10282C0094F8C51100297FF45BAF4FF47A70A4F8CB
:10283C00C00156E694F8C521002A7FF46EAF4FF420
:10284C007A70A4F8C0017FE594F8BF315BB102F057
:10285C0001FBD3E602F0B6FF6AE602F053FE67E630
:10286C0002F0B2FDB1E6FFF751FB054B42F21071DD
:10287C0041F2883229635A62012384F8BF31E6E7BA
:10288C000010004010B50E4C94F8E831012B0DD01F
:10289C00022B03D0BDE81040FFF720BCB4F8EC01CC
:1028AC00FFF770F8002384F8E83110BDFEF7C0FE86
:1028BC00002384F8E831BDE81040FFF70FBC00BFDF
:1028CC00C8040020F8B54F4E4F4F96F82B10002936
:1028DC0077D1B7F8DE3101331AB2B7F8E0310133F2
:1028EC00B2F5B47F1BB2B2BFA7F8DE21A7F8DE1198
:1028FC000A46B3F5B47FA8BF0023A7F8E031B7F8B8
:10290C00E23101331BB2B3F5B47F77DAA7F8E231C9
:10291C0006EB4202B6F84013B2F97030B0883B4D6A
:10292C003B4C0B4400FB03F385FB0312D81797F8C1
:10293C002D30C0EBE21003FB00F0C31784FB00202A
:10294C00C3EBA00080B202F0A1FCB7F9E031B6F8FD
:10295C00400306EB4303B3F9702097F82D30024483
:10296C00B08800FB02F285FB0201D017C0EBE1102E
:10297C0003FB00F084FB0023C017C0EBA30080B264
:10298C0002F08AFCB7F9E231B6F8400397F82D2033
:10299C0006EB4303B3F970300344B08800FB03F338
:1029AC0085FB0315D817C0EBE51002FB00F084FB88
:1029BC000034C017C0EBA40080B2BDE8F84002F0B0
:1029CC0071BCB7F8DE21B7F8E031013A12B2013B25
:1029DC001BB2002AB8BF40F26712002BB8BF40F2FE
:1029EC006713A7F8E031B7F8E231A7F8DE21013B15
:1029FC001BB2002BB8BF40F2671387E70023A7F880
:102A0C00E23185E700000020C8040020D34D62109D
:102A1C006766666638B5224D22492A6B4B6A224C92
:102A2C0002EB420212FA83F2A4F8B03100234B629B
:102A3C0053095B009BB2A4F8B431C3EBD2039BB235
:102A4C009208D4F8B8012A63A4F8B63101E004283E
:102A5C0002D94A6A9A42FAD3FFF758FAD4F8B83135
:102A6C00607F94F826100022013384F8982184F8B2
:102A7C00992150EA0102C4F8B83104D12B6BB3F59B
:102A8C00FA6F06D338BD132BFCD92B6BB3F5FA6F49
:102A9C00F8D8002385F82D30BDE8384002F0DAB9BB
:102AAC000000002000100040C8040020F8B5BA4C0B
:102ABC00B4F8F211B4F8F001B4F8F42194F8D4316C
:102ACC00B4F8D851A4F8BC510131A4F8F21194F81F
:102ADC00F611013001320B43A4F8F001A4F8F421F3
:102AEC003ED194F8F721002A3AD0B4F8C251002D07
:102AFC0040F08281B4F8F83101339BB244F6206186
:102B0C008B42A4F8F8312BD9B4F8FA311E2B40F2D1
:102B1C00AB8194F8C030012184F8D411002B00F063
:102B2C00A881B4F8FC119D484B08A0FB0323DB09DA
:102B3C00B1F5B97F84F8F6310DD3994F4AF6AA2630
:102B4C0001F0E8F86420FEF7B9FF94F8F6313E6026
:102B5C000135AB42F4DC94F8C3300BB984F8263061
:102B6C00E37F73B18F4AB4F8FE3192F842230133FC
:102B7C009BB202EB8202B3EB820FA4F8FE3100F39E
:102B8C009E8094F8C531002B38D1864D95F82D30A8
:102B9C0023B194F8BF31002B40F01481B4F8F43118
:102BAC00142B31D895F89C33002B40F08F80B4F85F
:102BBC00BC1194F8D43123B194F8BF31002B40F000
:102BCC00D98094F89B31E888002B00F0A680AB8864
:102BDC00B4F8DC215D1C744B00FB02F283FB023C5D
:102BEC00D317A3EBEC132B449BB2A4F804326F4A1B
:102BFC00A4F8D611C2E90D33D062D363B4F806320F
:102C0C000133A4F80632F8BD94F8C1300022A4F8C0
:102C1C00F42123B194F8BF31002B40F0FB80637F8B
:102C2C00002B40F0848094F8CA31002BBAD094F871
:102C3C00BF31002BB6D0B4F8CC21D4F8EC115C48E1
:102C4C005C4FFEF781FF5C49FEF73AFAD4F8D011DD
:102C5C00FEF7F0FA39460646FEF760FC38B9002755
:102C6C0039463046FEF73CFC002800F00881C4F8D9
:102C7C00D071D4F8B831632B94D895F89C330022DA
:102C8C002A65002B93D0B4F8D63101210A4685F879
:102C9C009D138C46B4F8BC11C81A90422EDC581AFD
:102CAC00904240F3B080A3EB0C0399B2E27DA4F800
:102CBC00BC11002385F89E3385F8342079E7012276
:102CCC00002384F80022A4F8FE315AE7D4F8B83176
:102CDC00952BB4F8D631D8D9952BD6D9D4F89C21CC
:102CEC00B2F5FA7F8CBF042110210A4685F89D139A
:102CFC008C46B4F8BC11C81A9042D0DD2A6B6344E0
:102D0C0099B2B2F5FA7FA4F8BC1178D9E37D85F8B5
:102D1C003430012285F89E234BE7234A00FB01F354
:102D2C00A2FB0323C3F3CF13A4F804325FE794F898
:102D3C00BF31002B3FF436AFB5F87023296B1F4819
:102D4C001F4FFEF701FF1C49FEF7BAF9D4F8E41146
:102D5C00FEF770FA39460646FEF7E0FB38B9002755
:102D6C0039463046FEF7C6FB002800F08580C4F8D3
:102D7C00E47158E7B4F8C8312F2B7FF622AFE888FE
:102D8C00094A00FB01F3A2FB0323DB0901339BB2CD
:102D9C00A4F804322BE700BFC8040020B9D31FB13C
:102DAC000030004000000020D34D6210002C014088
:102DBC004000002000E0FF4417B7D1387403002016
:102DCC000000164302F03AF8FFF77CF894F8A031B3
:102DDC00002B7FF4E3AE95F8293094F89821002B62
:102DEC003CD095F843339A427FF6D8AE012384F851
:102DFC00A031FFF70FFED1E6A4F8F831B0E60023BE
:102E0C0085F89E33D5E6E27D85F83420002385F8DD
:102E1C009E33CEE694F82C20B4F90212194802EB3A
:102E2C00820202EB8202D200FEF78EFE1649FEF7FA
:102E3C0047F9FEF77DFBB5F86C3069891B1A1BB29C
:102E4C001A468B42A5F86C30EB88BCBF0AB2A5F8C9
:102E5C006C209342B8BFA5F86C30E0E695F844338B
:102E6C009A427FF69BAEC1E784F8F751A4F8F8516B
:102E7C0076E600F04FFF6EE6C4F8E461D3E6C4F8E2
:102E8C00D061F6E64803002017B7D1382DE9F04F92
:102E9C0085B002F061F84FF47063C84AD3F8E010C3
:102EAC00914205D1C64AD3F8E410914200F07E83DA
:102EBC00C44DC54C02F08CF902F00AFAFEF770FE14
:102ECC00E378022B00F0D0831122C04B2271022137
:102EDC00BF4AE17003F10C0013F8011B02F8011F4B
:102EEC008342F9D1FEF7B6FF637C227DA988E98085
:102EFC00013B18BF012385F82B3002B9E27494F81A
:102F0C00263093B1AA8969892B89323201204FF47A
:102F1C007A7632313233AA810022AE83698185F808
:102F2C0020006082A282A2752B8100F079FE002322
:102F3C00A4F8FA3102F076F8A64B4AF6AA221A60E7
:102F4C0001F00EFE94F8CB3113B1012384F8CA3191
:102F5C0001F090FE9F4FDFF880B2DFF88092DFF82F
:102F6C0080824AF6AA26D4F8B831B4F8A611B4F87F
:102F7C00A821B4F8AA01042B94BF0623032385F8D7
:102F8C00433385F84433B4F8A4310B441344B4F8F8
:102F9C00AC11B4F8AE2103440B4413440433627DEA
:102FAC003E605B10C4F8EC31002A40F09A81B4F812
:102FBC00063242F21072934209D994F8D4110029C6
:102FCC0040F0DB8249F64042934200F2FB82B4F8B7
:102FDC00F02144F620639A421BD9B4F902A2504660
:102FEC00FEF7DCF95946FEF76BF8D4F80812FEF739
:102FFC0021F999F80030C4F80802022B00F0758210
:10300C00032B00F06382012B00F056820023A4F8FE
:10301C00F031D4F8B821B2F57A7F40F21E8100214C
:10302C00B4F8C23184F8C711C72B40F2E781E17CB8
:10303C0011B19F2B40F21D8194F80D12002900F064
:10304C00B580B3F5C87FC0F01B81D4F8EC3194F88F
:10305C009A0188FB03C1A1EBE371C4F89C1110B178
:10306C000A2A00F2DC8194F81532002B7BD02B6BF2
:10307C00322B78D95B4B1022002183F80B1383F889
:10308C00152383F80C2394F80032002B78D194F894
:10309C0018320133DBB2C82B84F8183200F24F819E
:1030AC0094F8C5314FF0000A84F8BEA1002B40F013
:1030BC00A18094F8BF314C4AD4F8EC114B4892FBE8
:1030CC00F1F213FB02F39BB2A0FB032095F8202036
:1030DC00A4F81632C008A4F82602002A40F0CE81CB
:1030EC0094F82B1094F80C024FF4FA638142A5F873
:1030FC006A30C0F0D481D4F8B831632B00F2FB8075
:10310C002B6BB3F5FA7F40F2F6800C2385F8353043
:10311C0094F82F30002B40F00581354A526A4AF65C
:10312C00C8739A427FF61FAF94F8BFA1BAF1010F92
:10313C007FF419AF94F8C731013384F8C73101F02B
:10314C007DFEB4F8C83185F82DA02F2B05D80023AF
:10315C0084F8BF3141F288332B630023C4F8B831B3
:10316C00FFF758FCFFE61F4B0022102183F80B13CE
:10317C0083F8152383F80C2394F80032002B86D0A7
:10318C00D4F80802FEF7FAF9B4F81612B4F80222D1
:10319C00009183B2B4F8FC1194F80C0202F068FBB5
:1031AC0002F058FB002384F8003270E7952B94BF93
:1031BC0064230A2385F8373047E700BFDAE3255943
:1031CC00D963B84E00000020C80400208C5E0008B3
:1031DC00CC04002000300040610B363B1C04002066
:1031EC005655555500E100E0C0270900CDCCCCCC9C
:1031FC0000100040B4F8C831302B49D994F8D421D0
:10320C00002A45D0313B572B00F27D8194F82832AF
:10321C00002B40F00782FFF755FB94F81BE0B4F845
:10322C00C8017822302141F6583340F22A3CB3FBD6
:10323C00FEF3BCFBFEFCCDF800C0FEF70DFCA5F8C0
:10324C00A40380B2FEF72EFCB5F8A4234FF416733A
:10325C00B3FBF2F3A4F8163285E6B4F8C2319BB98D
:10326C00642A84F8C73100F2C980E17C00293FF45C
:10327C00E3AE002184F8C71194F80D12002995D003
:10328C00002384F8C731E0E6642A7FF6D0AECBE6A3
:10329C00237F4FF0010A84F828A2002B00F0B8809D
:1032AC00AB8894F82910A3F1130202EB4102E988D0
:1032BC0092B2A4F8BC2101FB02F2B2FBF3F253442C
:1032CC009B1AA4F8043202F07FF8B4F80422CA4B1B
:1032DC0084F89BA1C3E90D22DA630023A4F816320B
:1032EC0041E6AB880093286B5B08C8226021FEF78F
:1032FC00B3FBE8805BE60C230093D4F89C0103231A
:10330C004FF4FA726421FEF7A7FB2B6B85F835009E
:10331C00312B9CBF022385F8353094F82F30002BCD
:10332C003FF4FBAE17230093B4F8BC010D234FF40C
:10333C00FA626421FEF790FB84F8B201EDE601F02D
:10334C0057FB0121AD4800F001FFB4F81A0201F05F
:10335C00EFFBB4F81E22AA4BA4F81C0240F6E44A78
:10336C000AFB02F2A3FB0213D21A03EB5203B5F8C9
:10337C00A023A44984F80C02DB0A02FB03F3B4F883
:10338C00FC21A1FB0313C2EBC20202EB5313DB10B3
:10339C00A4F8FC31FEF76CFD9B4BC4F820020AFB31
:1033AC0000FAA3FB0A3A4AF30F2ABAF1000FBCBF8A
:1033BC000023A4F8023294F8C030A8BFA4F802A2EB
:1033CC001BB394F8F631298BB4F8FC2101FB03F301
:1033DC009A4217DAB4F8242294F8C5318B4801329A
:1033EC0044F6206192B200FB03118A42A4F8242215
:1033FC0000F32981002284F8182253E6002184F876
:10340C00C71114E60023A4F8243294F8C531F1E76F
:10341C00794AC2E90D33D36302F074F85DE7D4F84E
:10342C001002FEF739FBD4F89C31B0EB530F1AD9CC
:10343C00B3F5FA6F17D294F81422013284F81422DF
:10344C00A27C0021C4F8B8119AB9B4F8C8212F2A6B
:10345C000FD9002284F8BF212A895208A4F8D6215A
:10346C00012285F82D20002284F89A21C4F810320C
:10347C00F9E52A6BB2F57A7FEED9EAE7B5F8A23313
:10348C000093698CAB8BAA8CFEF7E6FA94F82B10A0
:10349C00A5F86A0094F80C028142BFF42CAEB5F882
:1034AC00A233012200925B0801F10A020A39FEF7ED
:1034BC00D3FAA5F86A001EE694F80C32544A43F489
:1034CC0000731380022389F800309FE5B4F8FC31B7
:1034DC004C494F4AA1FB0313C3F3C70343F4806366
:1034EC001380012389F8003090E5464A5FFA8AF38D
:1034FC00A2FB03231B09464A43F4C0631380032336
:10350C0089F8003082E5012384F82832FFF7DAF9D4
:10351C00B4F8C831C82B04D95023A4F8DEA1A5F8FF
:10352C00A433B5F8A403FEF7BDFAB4F9DE31002BD1
:10353C007FF419AD374984F8C531012284F89B31E9
:10354C0042F228332B63C4F89C31C4F8103285F84E
:10355C002D204B6284F8BF21637F95F8A62385F854
:10356C002C201422C4F8B82113B1AB89A4F8D6319D
:10357C00FEF7CCFC01F09CFEF5E401F0C3FF1E4B02
:10358C000025C3E90D55DD6384F8D451A4F8C85166
:10359C0084F8F751A4F8FA5101F092FE1E484FF44A
:1035AC008072294602F038FCFEF7BCFA93F8EC3036
:1035BC001A4D2B2B66D0352B61D01F2B04BF184B0B
:1035CC002B6076E4039101F09DFF03990A4B84F87C
:1035DC00D411C3E90D11D963A4F8C81184F8F711FB
:1035EC00A4F8FA11039101F06BFE03990A484FF409
:1035FC00807202F011FCD7E7002C0140002401403E
:10360C00010110001F85EB51FF04EC4F7CFCFFFF08
:10361C001E040020001000404C0700200000002079
:10362C00007C0008194AD36823F00103D36001F031
:10363C0005FC174BC3E90DAAC3F83CA002F000F936
:10364C0084F828A2E7E54FF0000AA4F8C8A101F01D
:10365C0059FF01F0F3FB94F8C53184F8BFA1A4F82D
:10366C00FAA184F8D4A1C5E62379112B7FF42CACF4
:10367C00627895F828309A42BFF436AC24E4054BB6
:10368C002B6016E4044B2B6013E400BF0044014094
:10369C00002C014000F8000800F80108F0B5604C5F
:1036AC00D4E90002101A6FF4487240F27653821873
:1036BC009A4283B02AD85B4E5B4D002333802B7823
:1036CC00002B3CD06B780146ABB9AB78002B00F0EB
:1036DC008E80A888554F01333988AB70FEF7DCF922
:1036EC00322866D900223B882A706A78AB804AB1AE
:1036FC00D4E90031C91A40F2E14399424DD9AB7972
:10370C004B2B77D80023A868338004E04649484BFC
:10371C00886800221A804749474A0B881268A0EB38
:10372C00030C944503DD13440B8003B0F0BD1C1A4D
:10373C00A242BABF9B1A0B80088003B0F0BD3F4A6F
:10374C00947C74B13E4A128890421AD83D494FF489
:10375C007A7409880094FEF77FF9A86000233380FF
:10376C00D9E7324B1A88374B198840F2FF73009314
:10377C002F23FEF771F93028CEBFA860AC6020462D
:10378C00ECE72A4B511C1A884FF4FA63009340F271
:10379C00E933FEF761F9A860E0E72A48AB790288C3
:1037AC00C2EBC20201331144DBB2C908AB71018018
:1037BC00A6E73B886268C3EBC3012368D31AAA78D7
:1037CC000B44C3F3CF03322A3B808ED9193B9BB2F7
:1037DC003B80A3F2D663194A03EBD3735B1082F8D8
:1037EC00213001236B7000F0CBFA3B887DE780B26F
:1037FC00A8806FE7134A1149138819339BB21380C1
:10380C00A3F2EE2303EBD3735B10002481F820307A
:10381C002C70FEF71FFBAC7100F0E2FA72E700BFF0
:10382C004C070020CE0600202007002012000020AC
:10383C00C206002088060020BC030020C80400201B
:10384C0014000020100000201A4A9388591E0229E7
:10385C0030B413D8184BD9683B290DD80121174D1A
:10386C001748197400232B70164C174B21700E251A
:10387C00057020209071197030BC7047043B042BEC
:10388C00FAD80D4BD9686329F6D80D480D4D0B4C61
:10389C004FF0030C83F810C00B4B4FF0070C0121B9
:1038AC0080F800C02020297021709071197030BCF4
:1038BC00704700BFBC03002020070020C603002077
:1038CC00C70300208A050020BF060020F8B5284B4E
:1038DC00284F1968002544F6206E1A46A7F804E014
:1038EC0003F17804AC462E4652F8043F8B42A3EB0E
:1038FC000100194606D070453CBF1FFA80FE012618
:10390C0084440125A242EFD10EB1A7F804E00DB119
:10391C004FEA5C15184C194A2378D560012B23D03B
:10392C00174D2B78012B15D02278134311D1FFF7AB
:10393C008BFFBB88C93B44F656529BB2934208D8C6
:10394C0001231049104A2B70772008700221B9719D
:10395C001370F8BDBA88C93A44F6565192B28A42ED
:10396C00F7D80849084AEFE7FFF76EFFD8E700BF22
:10397C004C070020BC0300208A05002020070020F3
:10398C008B050020C6030020BF06002070B5504CEC
:10399C00237813B14F4B1B7833B94F4B1B78002B4B
:1039AC004FD0012B0AD070BD4C4B1B78002B35D05F
:1039BC0001F0D6F84A4B02221A7070BD454B1B78A9
:1039CC00002B31D1474D2B78012B6FD0464B1B78F8
:1039DC00012B62D02378002BE5D12B78002B3AD029
:1039EC004249434B4A7C072A36D81888052833D9D4
:1039FC00404C4D69E06F24680132D2B22844001B60
:103A0C00082A4A74486127D1C0F3CF023A4CC0F35C
:103A1C00CF101518101A258108831DE001F0DAF873
:103A2C002F4B01221A7070BD2C4B1B787BB1334B82
:103A3C001888FDF7A7FFFDF7FBFDBDE8704001F00E
:103A4C008FB8FFF743FFBDE8704001F089B8BDE8BF
:103A5C00704001F0BFB8264B294C208830B9234A5E
:103A6C00127842BB1A8801321A8070BD40F2DC52C7
:103A7C00002690421E8096D91C4D698BFEF70CF8DF
:103A8C0032281ED82B7F0133DBB2322B2B7701D996
:103A9C006E7896B123886B8370BD01F0E5F8164BF8
:103AAC0088B103229A7101F05BF893E7FDF7C0FD32
:103ABC0001F056F88AE7188070BD00F0C1F90123B7
:103ACC002B702E77E6E702229A71FFF7E7FDEAE703
:103ADC009C060020DD060020BF06002048070020C1
:103AEC00B00600208A0500208B050020200700204E
:103AFC00C20600204C070020BC030020B4060020A6
:103B0C008A0600200B28034B28BF0B20400018709E
:103B1C00704700BF3D0700202DE9F84F354C364E5D
:103B2C00DFF8D880032001F02BFD04F17C07002383
:103B3C0018E094F835503249DFF8C8B0C3EBC31025
:103B4C00F7224FF47A6A0CEB400080B212FB05A20C
:103B5C004DBBC1E90D55CD63FDF7B0FF2B460234CB
:103B6C00BC4211D094F834C04FF000094AF6AA2296
:103B7C00BCF1FF0FC8F80020A6F80090D9D1023490
:103B8C000133BC42DBB2EDD101F0BCFC1E481C4A37
:103B9C0000881A4900239362D0624AF6AA22338025
:103BAC000A60BDE8F88FBBFBF2FA4FF00A0E174A19
:103BBC00174DB2FBFAF290B2C1F828E0C8622A782D
:103BCC0000FB02F2FE2010FB03C0124B83FB0232FF
:103BDC00114BB3FBFAFA114B0AFB00F0D20AA3FB10
:103BEC000030C1E90D22CA63C0F34F10FDF766FF28
:103BFC004B46B4E7C8040020CE060020003000403D
:103C0C00002C0140C0D8A70004000020001BB70006
:103C1C003D07002057EAE068A08601001F85EB51A4
:103C2C0010B572B61A4B93F83430FF2B07D0FFF750
:103C3C0073FF184A184B1288DA6262B610BD164C24
:103C4C00164B41F28732E2621B78E363C4E90D3311
:103C5C00032001F095FC3723A362C820FDF72EFF4B
:103C6C00052001F08DFC2823A362C820FDF726FF58
:103C7C00062001F085FC1923A362C820FDF71EFF66
:103C8C0001F040FC064A0023A3621380D1E700BF79
:103C9C00C804002004000020002C01403D07002037
:103CAC00CE06002070B5164C41F28733E36272B633
:103CBC00144D154B3C224AF6AA262E60A2621B78A4
:103CCC00E363C4E90D33012001F05AFC4B20FDF7EE
:103CDC00F5FE5023A3624B20FDF7F0FE5A23A3629E
:103CEC004B202E60FDF7EAFE01F00CFC074A084958
:103CFC0012880023A3620B80E26262B670BD00BF23
:103D0C00002C0140003000403D0700200400002042
:103D1C00CE06002010B572B6144C154A154B4AF657
:103D2C00AA2141F28730E06211605022A2621B7816
:103D3C00E363C4E90D33032001F022FC6420FDF79A
:103D4C00BDFE4623A3626420FDF7B8FE2823A362C0
:103D5C006420FDF7B3FE01F0D5FB074A0749128832
:103D6C000023A3620B80E26262B610BD002C0140FE
:103D7C00003000403D07002004000020CE0600204B
:103D8C0010B5124C124B41F287313222E162A26221
:103D9C001B78E363C4E90D33022001F0F1FB96209C
:103DAC00FDF78CFE0B4A4AF6AA211E2311609620C1
:103DBC00A362FDF783FE01F0A5FB074A07491288B1
:103DCC000023A3620B80E26210BD00BF002C0140F7
:103DDC003D0700200030004004000020CE060020EB
:103DEC0010B5124C124B41F287312822E162A262CB
:103DFC001B78E363C4E90D33022001F0C1FB96206C
:103E0C00FDF75CFE0B4A4AF6AA215023116096205E
:103E1C00A362FDF753FE01F075FB074A07491288B0
:103E2C000023A3620B80E26210BD00BF002C014096
:103E3C003D0700200030004004000020CE0600208A
:103E4C002DE9F041154D41F28733EB6272B6144BFC
:103E5C00DFF850801B78144FEB63C5E90D337724E2
:103E6C004AF6AA26A7FB04300009C8F8006001F046
:103E7C0087FB63100A33AB620A20023CFDF71EFE7F
:103E8C00631CEFD101F03EFB084A0949128800235C
:103E9C00AB620B80EA6262B6BDE8F081002C014097
:103EAC003D07002000300040CDCCCCCC04000020DD
:103EBC00CE060020002103E00B4B5B58435004312D
:103ECC000A480B4B42189A42F6D30A4A02E00023E6
:103EDC0042F8043B084B9A42F9D301F075FD01F00E
:103EEC0077FFFEF7D3FF7047AC5E000800000020A0
:103EFC00D0030020D003002074080020FEE700004F
:103F0C00836861F300038360704700BF00230122C4
:103F1C00037043708370C270704700BF43680A78A7
:103F2C0062F30823436083684A7862F34103836039
:103F3C0083688A7862F3CB238360CB78C26A013BB7
:103F4C0063F31752C2627047836861F3082383607E
:103F5C00704700BF836843F008038360704700BF5D
:103F6C008068C0F3C0007047836843F0040383602B
:103F7C00704700BF8068C0F38000704710B41129EF
:103F8C0017D8DFE811F0120079007E00830088005A
:103F9C008D00920097009C00A100A600AB00B00021
:103FAC00B500BA00BF00C4007400046963F30204D6
:103FBC000461013A0F2A0DD8DFE802F00E13181D28
:103FCC0022272C31363B40454A4F5408C36A61F3D3
:103FDC00D333C36210BC7047436B61F30403436378
:103FEC00F8E7436B61F349134363F3E7436B61F306
:103FFC008E234363EEE7436B61F3D3334363E9E70B
:10400C00436B61F318534363E4E7436B61F35D6304
:10401C004363DFE7036B61F304030363DAE7036BCA
:10402C0061F349130363D5E7036B61F38E230363D9
:10403C00D0E7036B61F3D3330363CBE7036B61F31B
:10404C0018530363C6E7036B61F35D630363C1E756
:10405C00C36A61F30403C362BCE7C36A61F3491327
:10406C00C362B7E7C36A61F38E23C362B2E7C46865
:10407C0063F35754C4609CE7046963F3C50404619B
:10408C0097E7046963F38814046192E7046963F3A6
:10409C004B2404618DE7046963F30E34046188E7F3
:1040AC00046963F3D134046183E7046963F39444D2
:1040BC0004617EE7046963F35754046179E704698A
:1040CC0063F31A64046174E7046963F3DD640461E7
:1040DC006FE7C46863F30204C4606AE7C46863F3FF
:1040EC00C504C46065E7C46863F38814C46060E702
:1040FC00C46863F34B24C4605BE7C46863F30E3499
:10410C00C46056E7C46863F3D134C46051E7C46833
:10411C0063F39444C4604CE7836807298CBF43F075
:10412C0000736FF359638360836861F35343836057
:10413C00836862F314538360704700BF024B9A6824
:10414C0060F3D7529A60704700240140836861F392
:10415C0096538360704700BF20B9034BDA6961F353
:10416C000002DA61704700BF0000014010B4124930
:10417C000B6843F001030B600B689B07FCD54B6885
:10418C000D4A6FF301034B60536813F00C0FC3F32C
:10419C008101F9D1136823F0867323F48033136003
:1041AC0041F610744FF480104FF41F035160D46229
:1041BC00106310BC9360704700100240030C03F1B5
:1041CC00804303F5043300F01F001A68012303FA3F
:1041DC0000F030EA02030CBF01200020704700BF42
:1041EC00030C03F1804303F5043301291A6800F032
:1041FC001F0006D0012101FA00F022EA000018602D
:10420C00704701FA00F0104318607047030C03F17B
:10421C00804303F5043301291A6800F01F0006D00F
:10422C00012101FA00F022EA00001860704701FA3F
:10423C0000F0104318607047042809D8DFE800F03C
:10424C00090F151B03000F4B5A6A61F300025A62E7
:10425C0070470C4B1A6861F300021A607047094BE7
:10426C001A6861F310421A607047064B1A6861F3C2
:10427C0018621A607047034B1A6A61F300021A62E3
:10428C00704700BF00100240024B5A6860F30712DF
:10429C005A60704700100240024B5A6860F30A22C1
:1042AC005A60704700100240024B5A6860F3CD22EE
:1042BC005A60704700100240054B5A6860F38F3209
:1042CC005A605A68C0F3800060F31C725A607047E1
:1042DC0000100240134BA0B95A6860F31042844698
:1042EC005A60104B5A6861F395425A605A68C1F390
:1042FC00011060F35E725A60DA6A6CF31A62DA6269
:10430C0070475A6842F480325A605A6801280BBFD1
:10431C006FF3514242F400324FF0020C4FF0000C9C
:10432C005A60DEE700100240024B5A6860F301024B
:10433C005A60704700100240024B5868C0F381006D
:10434C00704700BF0010024038B53F4D6B6813F04A
:10435C000C0F0446C3F3810228D0022A2FD03B4B0A
:10436C00236039483A4A41683A4DC1F30311515C14
:10437C00CB4063604168C1F302211144097C23FAEC
:10438C0001F1E1604168C1F3C221695CCB40A360DB
:10439C0045684168C5F30070C1F3813141EA800181
:1043AC000A44127EB3FBF2F3236138BD6B6D9805A2
:1043BC00D5D52B6B9901D2D5274B2360D1E76968F2
:1043CC00EB6A002BC1F300411DDAEA6AEB6AC2F317
:1043DC00031CEA6AC3F3082302F0070269B3696895
:1043EC001E4811F4003F194908BF08460021A3FBE1
:1043FC00000503FB01F10CFA02F20023FDF7DEF8D5
:10440C0003462060ADE76B686A6812F0C04FC3F3D7
:10441C008343C2F341700CD10F2B0AD0023319B174
:10442C00094A526892030AD50C4800FB03F3236037
:10443C0097E7013303EB0013F1E70848D7E703488C
:10444C0000FB03F323608CE70010024000127A009B
:10445C005C5E00086C5E0008006CDC0200093D002C
:10446C00012805D0054B5A6D6FF305125A6570473C
:10447C00024A536D43F030035365704700100240FD
:10448C0010B404680C490022C3B26FF3000404603A
:10449C00083B026042608260C260A2F13332A2FB30
:1044AC0003231B09486810BC9B000F2202FA03F37C
:1044BC0003434B60704700BF00000240036861F388
:1044CC0000030360704700BF034B1B68034214BF1B
:1044DC0001200020704700BF000002400023C0E90B
:1044EC000033C0E902330382704700BF03684BF608
:1044FC00EF721340036002680B8913430360036877
:10450C004A7C62F30D3303600368CA7B62F38B232E
:10451C00036003688A7B62F30923036003684A7BA8
:10452C0062F3C713036003680A7B62F386130360AC
:10453C000A7C036862F345130360D1E9002310B4CD
:10454C004C894460826010BCC3607047014BD860DA
:10455C00704700BF00200240024B0349034A5960D8
:10456C005A6070470020024023016745AB89EFCDAC
:10457C00024A136943F08003136170470020024024
:10458C001B4A136943F0020313615061136943F032
:10459C0040031361D368D90704D4D3685B0720D5D3
:1045AC00012011E04FF08043D168C80712D4D168C4
:1045BC00490713D4D268D20603F1FF334CBF022053
:1045CC000320002B08BF0420094B1A696FF341022A
:1045DC001A617047013BE7D10420F5E7013B01204C
:1045EC00EFE7D36813F0100F14BF02200320EBE7A2
:1045FC0000200240194A136943F001031361016062
:10460C00D368D90704D4D3685B0720D5012011E007
:10461C004FF48013D168C80712D4D168490713D45A
:10462C00D268D20603F1FF334CBF02200320002BCB
:10463C0008BF0420094B1A696FF300021A61704716
:10464C00013BE7D10420F5E7013B0120EFE7D368FC
:10465C0013F0100F14BF02200320EBE700200240E0
:10466C000B88002B43D02DE9F0434FF0000E0326AE
:10467C0001251FFA8EFC4FEA4C0213F0010F06FACB
:10468C0002F705FA0CF80EF1010E2CD0046824EA9E
:10469C00070404608C79D0F80090944044EA090433
:1046AC000460446824EA080444600C79D0F804805F
:1046BC0004FA0CFC4CEA08044460846824EA0704FD
:1046CC008460CC79D0F808C0944044EA0C0484602F
:1046DC00C46824EA0707C76091F805C0C4680CFADF
:1046EC0002F22243C2605B08C3D1BDE8F08370477D
:1046FC0001F007039B00C90802FA03F20BD0416AD0
:10470C004FF00F0C0CFA03F321EA03034362436AE4
:10471C001A4342627047016A4FF00F0C0CFA03F314
:10472C0021EA03030362036A1A430262704700BF63
:10473C001F4BDB68C3F3022300B5C3F1070EBEF1B8
:10474C00040F03F1040C28BF4FF0040EBCF1060F4C
:10475C0021D9033B4FF0FF3C0CFA03FC22EA0C027C
:10476C004FF0FF3C0CFA0EFC21EA0C01994000289A
:10477C0041EA020112DB0F4A09011318C9B283F88E
:10478C0000130123410900F01F0003FA00F042F866
:10479C0021005DF804FB00221346E1E7064B00F014
:1047AC000F0009010344C9B219765DF804FB00BF80
:1047BC0000ED00E000E100E0FCEC00E008B52E4B61
:1047CC0098421CD02D4B984223D02D4B98422AD086
:1047DC002C4B984209D02C4B98422ED02B4B984204
:1047EC0035D02B4B98423CD008BD2A480121FFF70D
:1047FC000DFDBDE8084027480021FFF707BD2648FE
:10480C000121FFF703FDBDE8084023480021FFF715
:10481C00FDBC22480121FFF7F9FCBDE808401F4808
:10482C000021FFF7F3BC1E480121FFF7EFFCBDE8A8
:10483C0008401B480021FFF7E9BC1A480121FFF78B
:10484C00E5FCBDE8084017480021FFF7DFBC16481F
:10485C000121FFF7DBFCBDE8084013480021FFF7FE
:10486C00D5BC12480121FFF7D1FCBDE808400F4828
:10487C000021FFF7CBBC00BF002C0140000400401E
:10488C000010004000200040004001400044014066
:10489C0000480140080010000B000C000100100043
:1048AC000400100010000C0011000C0012000C0091
:1048BC00036861F3C7130360704700BF062909D86A
:1048CC00DFE801F013080E0809080400C36962F35D
:1048DC00CB23C3617047C36962F3C303C3617047E1
:1048EC00836962F3CB2383617047836962F3C303EB
:1048FC0083617047062909D8DFE801F0090E131807
:10490C001D220400036A62F30C3303627047036ACE
:10491C0062F3000303627047036A62F3820303626B
:10492C007047036A62F3041303627047036A62F30D
:10493C00861303627047036A62F3082303627047AD
:10494C00036A62F38A230362704700BF2DE9F041CA
:10495C0086B0054601A817461E468846FFF7F4FCAC
:10496C00DDE90334114A954208BF1C4604EB84046C
:10497C006400B4FBF8F10E4CA4FB0134E40804EB26
:10498C008403A1EB43010429AB6888BF0134A4B2B2
:10499C0064F30F03AB60EB6867F30C33EB602B69CC
:1049AC0066F30D332B6106B0BDE8F0810038014091
:1049BC00CDCCCCCCC36861F34D33C360704700BF22
:1049CC00C36861F3C303C360704700BFC36861F37E
:1049DC008203C360704700BF436961F3C71343612F
:1049EC00704700BF436961F3C3034361704700BF65
:1049FC00064B0748B3F804C00649074AA0F800C0A4
:104A0C0018885B8808801380704700BF400700201F
:104A1C00E2060020E60600205C06002030B54023AC
:104A2C0087B0002203214FF09040FDF759F808237E
:104A3C00002203214FF09040FDF752F801214FF472
:104A4C00A010FFF7CDFB3448344CFFF719FD01A83B
:104A5C00FFF744FD324B334A2F48019301A940F232
:104A6C0001234FF440350492ADF81430CDE90245E2
:104A7C00FFF73CFD28480121FFF720FD01212A48C2
:104A8C00FFF7AEFB0720FFF717FC6846FFF73EFA6F
:104A9C0001240325002325488DF8023069468DF842
:104AAC0000408DF801408DF80350FFF737FA1F488E
:104ABC002B4622462946FFF761FA1C482B46062155
:104ACC000222FFF75BFA2B462A4610211748FFF704
:104ADC0055FA2046FFF732FB224614480721FFF710
:104AEC001BFB12482146FFF72FFA10482146FFF70F
:104AFC0007FA0E48FFF72EFA0C48FFF731FA002898
:104B0C00FAD10A48094CFFF72FFA2046FFF732FA80
:104B1C000028FAD107B030BD080002404007002041
:104B2C004C2401400001010109001800002401403F
:104B3C0048F2E80300FB03F3002BB8BF03F6FF7346
:104B4C00064A43F23810A0EB233082FB0023C01737
:104B5C00A0EBE3000F3000B2704700BF310CC33044
:104B6C0038B5164D164CAB6DAB652046FFF726FEDF
:104B7C00144B41210B22A16122621A78A2624FF6DA
:104B8C00FF73E3626269104B002142F00102626123
:104B9C0003F8041B0D4A61622A660D4A6B66137892
:104BAC00EB65E36843F40073E360236843F00103AF
:104BBC0040F68B122360AA6538BD00BF000002408E
:104BCC0000400140C603002048070020344001404B
:104BDC00C203002038B51D4D1D4CAB6D43F01003C6
:104BEC00AB652046FFF7EAFD60210323194AA1615A
:104BFC0023621278184BA2624C210122E1621A70D6
:104C0C0063691649164A43F001036361154B296623
:104C1C006A665B781733EB65AB6D43F00203AB65EB
:104C2C00AB6D43F00803AB65AB6D43F00103AB65B3
:104C3C00E36843F40073E360636C43F40043636420
:104C4C00236843F00103236038BD00BF000002401D
:104C5C00004001403007002048070020344001404C
:104C6C0030040020C60300204FF09043186900F078
:104C7C00040070470423012202214FF09040FCF7FE
:104C8C003BBF00BFFEE700BFFEE700BFFEE700BF73
:104C9C00FEE700BF704700BF704700BF704700BF02
:104CAC00704700BF10B50220FFF70EFC012800D0A2
:104CBC0010BD054C6060FFF79BFE0820FFF704FC5D
:104CCC00012808BF606010BD0000024008B520201C
:104CDC00FFF7FAFB012806D10A4B10225A60DA6959
:104CEC006FF30002DA618020FFF7EEFB012800D0A1
:104CFC0008BD044B10225A60DA696FF30002DA61C6
:104D0C0008BD00BF0000024010B5194B1C788CB9CF
:104D1C004FF40030FFF7D8FB01281AD04FF40020D5
:104D2C00FFF7D2FB012800D010BD124B4FF480329C
:104D3C005A6010BD0F4B4FF480325A609A6D6FF36E
:104D4C0000029A65FEF722FE0B4B4FF400421A61EB
:104D5C0010BD084B4FF480325A609A6D64F3000218
:104D6C009A65FEF713FE044B4FF400421A61D5E727
:104D7C008A0500200000024000040140084B5A69DB
:104D8C00920209D50749084A4FF4001058614B6A42
:104D9C001268B3EB520F00D87047FDF74BB900BF48
:104DAC00000401400010004030000020024B4FF680
:104DBC00FE721A61FDF77ABE00200040024B002201
:104DCC001A61FDF7F9B800BF00440140034B4FF6E0
:104DDC00FE714FF6FD7219611A6170470040014077
:104DEC00704700BF074B1A69910744BF4FF6FD721D
:104DFC001A61044B1A69D20744BF4FF6FE721A614E
:104E0C00704700BF00040040064A0749136801338D
:104E1C0013604B691B0400D470474FF400434B6183
:104E2C00FDF730BD4C08002000040140024BD8694E
:104E3C00C0F38070704700BF00000140044B1A683B
:104E4C004FF4001122F400121A605961704700BF30
:104E5C0000040140024A136843F4001313607047C6
:104E6C0000040140054B064A1B78002B0CBF4FF485
:104E7C00001100215B059160D36070472900002070
:104E8C00000401402DE9F0430029B4BFCE1C0E46AE
:104E9C0026F00303073383B023F0070300AFADEB19
:104EAC00030DB6106D4688468146144600213246E5
:104EBC00284600F0B1FFB8F1030F17DD4846291F53
:104ECC000022837890F8038090F800E090F801C0FD
:104EDC001B0443EA086343EA0E03013243EA0C2342
:104EEC00964241F8043F00F10400EADC3E60FFF713
:104EFC0033FBC4F30903EBB100237B607B683A6896
:104F0C009A4211D978687B6804EB800055F823101D
:104F1C00FFF770FB0320FFF719FB7B6801337B6005
:104F2C007A683B689A42EDD3FFF722FB0C37BD46FB
:104F3C00BDE8F0832046FFF723FBDDE7002A09DDFF
:104F4C00431E013103EB020C081AC25C03F8012F5B
:104F5C006345FAD1704700BF62B670471C4B40F2F4
:104F6C00531210B51A60FFF701F901210020FFF769
:104F7C0063F90120FFF722F901280446F9D100203A
:104F8C001D21FFF7A7F921460220FFF755F919203B
:104F9C00FFF714F901280446F9D10020FFF774F942
:104FAC000020FFF781F90020FFF776F92046FFF784
:104FBC0057FA0220FFF7B8F9FFF7BEF90228FBD128
:104FCC000020FFF74DFABDE8104000F02DBD00BFEA
:104FDC000020024008B511480121FFF701F9012119
:104FEC004FF4C010FFF7FCF80223002203214FF00E
:104FFC009040FCF775FD2023002203214FF09040D8
:10500C00FCF76EFD064B002083F80C034FF4805226
:10501C001A600121BDE80840FFF79EB8110014008A
:10502C0000E100E0084B10B44CF6CC4245F255546C
:10503C001C6003201A604FF47A614AF6AA22586069
:10504C0010BC99601A6070470030004038B53F487A
:10505C003F4C0121FFF7C4F80025682341F287314A
:10506C0046F66802E1622046A5622946A261E36128
:10507C000122FFF723FC204601220221FFF71EFC30
:10508C00012220460421FFF719FC20460121FFF7DD
:10509C000FFC636C2F483C2262F30703636401210D
:1050AC00FFF79EF82C4C2D480121FFF799F80223AD
:1050BC0019462A462046FCF713FD2A4620460123B2
:1050CC000221FCF70DFD80232A4602214FF090406F
:1050DC00FCF706FD204602220121FFF709FB2946B9
:1050EC0020460222FFF704FB022207214FF09040DA
:1050FC00FFF7FEFA2A464FF4806302214FF09040EE
:10510C00FCF7EEFC2A464FF4007302214FF090405E
:10511C00FCF7E6FC4FF480732A4602214FF09040D6
:10512C00FCF7DEFC02220A214FF09040FFF7E0FA78
:10513C00022209214FF09040FFF7DAFABDE838401F
:10514C00022208214FF09040FFF7D2BA0B00180052
:10515C00002C01401100140000040048120014003F
:10516C0008B516480121FFF73BF815480121FFF758
:10517C0037F80423002202214FF09040FCF7B0FCDA
:10518C0001214FF4A010FFF72BF80E490E4B40F6FF
:10519C008A101022886583F80B234FF40061196084
:1051AC000A4B4FF6FF71D9629A621A6842F080027C
:1051BC001A601A6842F001021A6008BD110014004E
:1051CC00100018000000024000E100E00040014027
:1051DC00F8B5FFF7C3FE244C01214FF4A010FEF7E5
:1051EC00FFFF102384F80B334FF400632360FFF7A9
:1051FC002DFF1E480121FEF7F3FF1D4B1D484FF6F6
:10520C00FF773B25DF6201219D62FEF7E9FF1A4B18
:10521C0032227726DA629E62302384F813334FF4FD
:10522C0000232360FFF7D6FE14480121FEF7D8FFB8
:10523C00134B1448DF629E621A6842F080021A60B7
:10524C000121FEF7CDFF104B4FF4FA710022D96209
:10525C009D6284F815234FF400132360FFF780FF41
:10526C00BDE8F84000F036BB00E100E004001C0093
:10527C000010004008001C00002000401200180024
:10528C00004801401100180000440140014B5863D4
:10529C00704700BF002C0140014B9863704700BF62
:1052AC00002C0140014BD863704700BF002C01401B
:1052BC00024A536943F0010353617047002C0140CB
:1052CC00024B0022DA625A62704700BF0040014074
:1052DC0010B5384C012220460021FFF70BFB20466D
:1052EC0001220221FFF706FB204601220421FFF7D1
:1052FC0001FB012211462046FFF7FCFA2046012251
:10530C000321FFF7F7FA204601220521FFF7F2FAF5
:10531C002268294B294842F001022260626C42F457
:10532C0000426264626942F0010262611968244AB7
:10533C0041F001011960596941F001015961D968C5
:10534C0021F00101D960016841F00101016011688F
:10535C0041F0010111605169A3F5923341F0010153
:10536C0051611A6842F001021A605A6942F0010256
:10537C005A61DA6842F0010204F5A054DA60FFF7D2
:10538C004DFB012200212046FFF7B4FA23680D4A99
:10539C0043F001032021236082F80713802313605C
:1053AC0002F1C04202F50C52136843F4004313603F
:1053BC0010BD00BF002C01400044014000480140DA
:1053CC000010004000E100E070B54FF09044204622
:1053DC004FF4806300220121FCF782FB4FF48060C4
:1053EC00A0624FF40073204600220121FCF778FBE9
:1053FC004FF400700F4DA0624FF4807320460022D2
:10540C000121FCF76DFB02234FF480701946A0625A
:10541C0000222846FCF764FB2846012300220221C7
:10542C00FCF75EFB20468023BDE870400022022181
:10543C00FCF756BB000400480E4B1A7D10B58AB918
:10544C000D4C012319462046FCF74AFB0123A362AD
:10545C00BDE810404FF40073002202214FF0904041
:10546C00FCF73EBB0448012300220221FCF738FB69
:10547C00EEE700BFC8040020000400480F4B1A7D63
:10548C0010B5802392B901214FF09040FCF728FB16
:10549C004FF0904380229A62BDE810404FF4807325
:1054AC00002202214FF09040FCF71ABB002202218F
:1054BC004FF09040FCF714FBEEE700BFC80400204F
:1054CC000E4B1A7D10B58AB90D4C022301212046D2
:1054DC00FCF706FB0223A362BDE810404FF4806387
:1054EC00002202214FF09040FCF7FABA0223044844
:1054FC0000221946FCF7F4FAEEE700BFC8040020BE
:10550C000004004870B51D4E0223002201213046D4
:10551C004FF09044FCF7E4FA02204FF48063002231
:10552C000121B0622046FCF7DBFA01234FF48060C6
:10553C001D4619460022A0623046FCF7D1FA4FF402
:10554C000073002229462046B562FCF7C9FA4FF4D5
:10555C00007180230022A16220462946FCF7C0FA84
:10556C008023A36200224FF4807329462046FCF767
:10557C00B7FA4FF48073A36270BD00BF00040048FB
:10558C00013870B5052833D8DFE810F033005F0020
:10559C008B00B800E5000600854C01231D4619461A
:1055AC0020460022FCF79CFAA5624FF090444FF481
:1055BC000073002229462046FCF792FA4FF4007142
:1055CC0080230022A16220462946FCF789FA80201C
:1055DC0000224FF480732946A0612046FCF780FA24
:1055EC004FF48073A362FFF76BFF724B724ADA6160
:1055FC0070BD4FF090448023002201212046FCF71F
:10560C006FFA80206A4DA0624FF480730022012152
:10561C002046FCF765FA01234FF4807019460022EE
:10562C00A0622846FCF75CFA012100224FF40073BB
:10563C00A9612046FCF754FA4FF40073A362FFF7FC
:10564C003FFF5C4B5D4ADA6170BD594C022300226E
:10565C0001212046FCF744FA4FF0904502204FF40C
:10566C00806300220121A0622846FCF739FA01234D
:10567C004FF4806019460022A8622046FCF730FAED
:10568C00012100224FF40073A1612846FCF728FA8F
:10569C004FF40073AB62FFF7F1FE464B484ADA61F8
:1056AC0070BD434C01231D464FF090461946002215
:1056BC002046FCF715FA4FF40073002229463046B9
:1056CC00A562FCF70DFA4FF400720223B262294670
:1056DC0000222046FCF704FA02224FF4806329468C
:1056EC00A26130460022FCF7FBF94FF48063B362F1
:1056FC00FFF7C4FE2F4B304ADA6170BD4FF0904477
:10570C008023002201212046FCF7EAF98020284D55
:10571C00A0624FF48073002201212046FCF7E0F9CF
:10572C004FF4807102230022A16228460121FCF76C
:10573C00D7F9022100224FF48063A9612046012190
:10574C00FCF7CEF94FF48063A362FFF775FE194B9B
:10575C001A4ADA6170BD164D022300220121284637
:10576C00FCF7BEF94FF0904402214FF48063002205
:10577C00A96220460121FCF7B3F94FF48060802325
:10578C0000220121A0622046FCF7AAF98020002209
:10579C004FF480730121A0612046FCF7A1F94FF46E
:1057AC008073A362FFF748FE024B054ADA6170BDB5
:1057BC000004004800000140C5000040D500004036
:1057CC00E500004070B51D4E022300220121304639
:1057DC004FF09044FCF784F902204FF480630022D0
:1057EC000121B0612046FCF77BF901234FF4806066
:1057FC001D4619460022A0623046FCF771F94FF4A1
:10580C000073002229462046B561FCF769F94FF474
:10581C00007180230022A16220462946FCF760F922
:10582C008023A36100224FF4807329462046FCF7A5
:10583C0057F94FF48073A36270BD00BF0004004899
:10584C0008B5FFF73DFEFFF7F7FDBDE80840FFF791
:10585C0015BE00BF044A054B12781A62DA6942F091
:10586C000102DA61704700BFC8030020000002404B
:10587C0010B5174CBDF808C02271120AE2701A0A52
:10588C00A1706271090A4FEA1C22617084F808C089
:10589C002070A371E271A44604F1080E002141406E
:1058AC0008224B0011F0800F83F0070314BFD9B20C
:1058BC00490002F1FF3308BFC9B213F0FF02F0D167
:1058CC00F44502D01CF8010FE9E7617210BD00BF6E
:1058DC005008002030B53248324D334C89B001218C
:1058EC00FEF77EFC31480121FEF77AFC01214FF4D2
:1058FC00A010FEF775FC2E4B01A928464022CDE9DD
:10590C000123FEF7ADFE002206212846FEF7F0FE2D
:10591C002046FEF7B5FD03A8FEF7E0FD254B1A78EF
:10592C00254BADF816200025244A049303A92046E4
:10593C004FF480731024ADF8144003920693ADF825
:10594C001C50FEF7D3FD1E4A1E4CD16941F00201DA
:10595C00D161D16941F008012B46D16120462A461C
:10596C004FF4E131FEF7F2FF20460121FFF728F852
:10597C0020460121FFF72AF820460121FFF732F8D3
:10598C0020460121FFF728F820460121FFF712F8E5
:10599C002A4603210A20FEF7CBFE09B030BD00BF1A
:1059AC000E001800000400481C00024012001400F5
:1059BC0000010201C80300205008002004380140F7
:1059CC00000002400038014030B414490B6843F029
:1059DC0001030B600B689B07FCD54B680F4A6FF3F8
:1059EC0001034B60536813F00C0FC3F38101F9D121
:1059FC0013680B480B4C23F0867323F4803313602D
:105A0C0041F610754FF480135160D56213634FF457
:105A1C001F039360846030BC704700BF00100240CD
:105A2C0000ED00E00010000810B5FEF785FC60B139
:105A3C00022816D02C482D4B2D495B682D4AC3F3F8
:105A4C000313CB5CD840106010BD284B5A6D9205E7
:105A5C00F0D51A6B244B284812F0007F08BF18466B
:105A6C00E9E7224B5968DA6A002AC1F300411CDAD3
:105A7C00D86ADC6ADA6AC0F3031EC4F3082402F0A5
:105A8C00070259B35B681D4813F4003F164B4FF0E7
:105A9C00000108BF18460EFA02F20023A4FB000E08
:105AAC0004FB01F1FBF78AFDC5E758685B6813F04E
:105ABC00C04FC0F38340C3F341720BD10F2809D000
:105ACC00023019B1094B5B689B0309D50B4B03FBE7
:105ADC0000F0B0E7013000EB0210F2E70748DAE71C
:105AEC00014B03FB00F0A6E700127A000010024005
:105AFC007C5E0008CC030020006CDC0200093D0039
:105B0C002DE9F047089E0D4604468846002B4DD1E2
:105B1C008A42944668D9B2FA82F252B101FA02F37F
:105B2C00C2F1200120FA01F10CFA02FC41EA03084F
:105B3C0094404FEA1C45210CB8FBF5FE1FFA8CF77C
:105B4C0005FB1E8341EA03430EFB07F199420BD977
:105B5C001CEB03030EF1FF3080F01E81994240F2E2
:105B6C001B81AEF1020E63445B1AA4B2B3FBF5F0D9
:105B7C0005FB103344EA034400FB07F7A7420AD99C
:105B8C001CEB040400F1FF3380F00881A74240F2C3
:105B9C00058164440238E41B40EA0E4000211EB12A
:105BAC00D4400023C6E90043BDE8F0878B4208D9F6
:105BBC00002E00F0EE800021C6E900050846BDE885
:105BCC00F087B3FA83F100294AD1AB4202D3824267
:105BDC0000F2F980841A65EB030301209846002E2D
:105BEC00E2D0C6E90048DFE702B9FFDEB2FA82F282
:105BFC00002A40F09180A1EB0C054FEA1C471FFADC
:105C0C008CFE0121B5FBF7F307FB1350250C45EA7D
:105C1C0000450EFB03F0A84208D91CEB050503F167
:105C2C00FF3802D2A84200F2CB8043462D1AA4B210
:105C3C00B5FBF7F007FB105544EA05440EFB00FEDC
:105C4C00A64508D91CEB040400F1FF3502D2A64589
:105C5C0000F2BB802846A4EB0E0440EA03409EE70A
:105C6C00C1F120078B4022FA07FC4CEA030C20FA06
:105C7C0007F405FA01F31C43FD404FEA1C4900FAF6
:105C8C0001F3B5FBF9F8200C1FFA8CFE09FB185533
:105C9C0040EA054508FB0EF0A84202FA01F20BD9C6
:105CAC001CEB050508F1FF3A80F08880A84240F211
:105CBC008580A8F1020865442D1AA4B2B5FBF9F051
:105CCC0009FB105544EA054500FB0EFEAE4508D90C
:105CDC001CEB050500F1FF346CD2AE456AD90238D5
:105CEC00654440EA0840A0FB0294A5EB0E05A542D2
:105CFC00C846A64656D353D05EB1B3EB080265EB4B
:105D0C000E0505FA07F722FA01F3CD401F43C6E949
:105D1C0000750021BDE8F087C2F1200320FA03F1E1
:105D2C000CFA02FC25FA03F395400D434FEA1C478D
:105D3C001FFA8CFEB3FBF7F107FB11302B0C43EA77
:105D4C00004301FB0EF0984204FA02F408D91CEB54
:105D5C00030301F1FF382FD298422DD90239634445
:105D6C001B1AADB2B3FBF7F007FB103345EA034542
:105D7C0000FB0EF3AB4208D91CEB050500F1FF3814
:105D8C0016D2AB4214D902386544ED1A40EA0141EF
:105D9C0038E73146304607E78646E5E61846FAE628
:105DAC004B45A9D2B9EB020864EB0C0E0138A3E702
:105DBC004046EAE7204694E74146D1E7D0467BE7E8
:105DCC00023B654432E7084609E76444023842E77F
:105DDC0070B50D4D0D4C641BA4100026A64209D1C4
:105DEC000B4D0C4C00F020F8641BA4100026A642AE
:105DFC0005D170BD55F8043B98470136EEE755F8D0
:105E0C00043B98470136F2E7A45E0008A45E000844
:105E1C00A45E0008A85E000802440346934200D129
:105E2C00704703F8011BF9E7F8B500BFF8BC08BCD4
:105E3C009E467047F8B500BFF8BC08BC9E4670473C
:105E4C00191B12131D1516171A090A0B1E0D0E0F0E
:105E5C00000000000000000001020304060708090E
:105E6C00000000000102030402040608020C0810E2
:105E7C0000000000000000000102030406070809EE
:105E8C0041494B4F4E20463420353541000000002F
:085E9C0070FCFF7F0100000013
:045EA40021160008BB
:045EA800FD150008DC
:105EAC00007C00088713871378003C003C00D00767
:105EBC004C046C07DC0564004A013C009001C800EE
:105ECC00010014004600DC0502010501010100007F
:105EDC00D43000000105010AE8030000102700007F
:105EEC00000000000A000000000000006400000038
:105EFC000000000000000000000000000000000096
:105F0C001027000050C30000B400D007D0070000D9
:105F1C00B400B700BA00BD00C100C400C700CA007D
:105F2C00CD00D000D300D600D900DC00E000E300A7
:105F3C00E600E900EC00EF00F200F500F700FA00D3
:105F4C00FD0000010301060109010B010E01110105
:105F5C001301160119011B011E012001230125014A
:105F6C0028012A012C012F0131013301350138019F
:105F7C003A013C013E014001420144014601470106
:105F8C0049014B014D014E01500151015301540186
:105F9C005601570158015A015B015C015D015E011C
:105FAC005F016001610162016301630164016501CC
:105FBC006501660166016701670167016801680197
:105FCC00680168016801680168016801680167017E
:105FDC006701670166016601650165016401630182
:105FEC0063016201610160015F015E015D015C01A1
:105FFC005B015A01580157015601540153015101DB
:10600C0050014E014D014B0149014701460144012C
:10601C00420140013E013C013A0138013501330196
:10602C0031012F012C012A01280125012301200116
:10603C001E011B0119011601130111010E010B01A7
:10604C000901060103010001FD00FA00F700F5004B
:10605C00F200EF00EC00E900E600E300E000DC00F9
:10606C00D900D600D300D000CD00CA00C700C400B0
:10607C00C100BD00BA00B700B400B100AE00AB0067
:10608C00A700A400A1009E009B0098009500920020
:10609C008F008C008800850082007F007C007900D6
:1060AC007600730071006E006B0068006500620082
:1060BC005F005D005A005700550052004F004D0024
:1060CC004A0048004500430040003E003C003900B7
:1060DC0037003500330030002E002C002A00280039
:1060EC0026002400220021001F001D001B001A00A6
:1060FC0018001700150014001200110010000E00FB
:10610C000D000C000B000A00090008000700060037
:10611C00050005000400030003000200020001005A
:10612C000100010000000000000000000000000061
:10613C00000000000000010001000100020002004C
:10614C00030003000400050005000600070008001A
:10615C0009000A000B000C000D000E0010001100CD
:10616C00120014001500170018001A001B001D0067
:10617C001F00210022002400260028002A002C00E9
:10618C002E00300033003500370039003C003E0053
:10619C0040004300450048004A004D004F005200AB
:1061AC00550057005A005D005F00620065006800F2
:1061BC006B006E0071007300760079007C007F002C
:1061CC008200850088008C008F009200950098005A
:1061DC009B009E00A100A400A700AB00AE00B10084
:1061EC003C001E03030000000000000090010000B2
:1061FC0000000000E80300000000000000000000A8
:10620C000000000000000000204E0000A0860100ED
:10621C0064190000000000000100000000000000F4
:10622C003200000000000000000000000000000030
:10623C00000000001027000050C300000102010004
:10624C006E00D00764000500E803061432007800E5
:10625C004B005A005A001E0002010000FA00000018
:10626C00204E200050C311070A00000000127A00D3
:107BE00041494B4F4E5F3535415F463432310000DD
:107BF0000000000000000000000000000000000085
:0400000508003EC1F0
:00000001FF
